:100000000C9458000C9480000C9480000C94800098
:100010000C9480000C9480000C9480000C94800060
:100020000C9480000C9480000C9480000C94800050
:100030000C9480000C9480000C9480000C94800040
:100040000C9421040C9480000C9480000C9480008B
:100050000C9480000C9480000C9480000C94800020
:100060000C946B040C948000000000002500280014
:100070002B00040404040404040402020202020229
:10008000030303030303010204081020408001025C
:1000900004081020010204081020000000080002DB
:1000A00001000003040700000000000000008A05B2
:1000B00011241FBECFEFD8E0DEBFCDBF12E0A0E01D
:1000C000B1E0E8E4F4E102C005900D92A230B1077E
:1000D000D9F724E0A2E0B2E001C01D92AE33B2072E
:1000E000E1F710E0C8E5D0E004C02197FE010E94CE
:1000F0001C0AC735D107C9F70E94AB050C94220A28
:100100000C94000008950895AF92BF92CF92DF92B1
:10011000EF92FF920F931F93CF93DF936C017B01BC
:100120008B01040F151FEB015E01AE18BF08C0174D
:10013000D10759F06991D601ED91FC910190F081C0
:10014000E02DC6010995892B79F7C501DF91CF9183
:100150001F910F91FF90EF90DF90CF90BF90AF90E5
:10016000089590E0FC01E656FF4F2491FC01EA5708
:10017000FF4F3491FC01EE58FF4FE491EE23C9F09C
:10018000222339F0233001F1A8F4213019F1223073
:1001900029F1F0E0EE0FFF1FE859FF4FA591B49150
:1001A0008FB7F894EC91611126C030953E233C93B3
:1001B0008FBF08952730A9F02830C9F0243049F7BF
:1001C000809180008F7D03C0809180008F77809325
:1001D0008000DFCF84B58F7784BDDBCF84B58F7D82
:1001E000FBCF8091B0008F778093B000D2CF809109
:1001F000B0008F7DF9CF3E2BDACF3FB7F8948091D6
:100200006B0290916C02A0916D02B0916E0226B5C6
:10021000A89B05C02F3F19F00196A11DB11D3FBF3E
:10022000BA2FA92F982F8827BC01CD01620F711D0D
:10023000811D911D42E0660F771F881F991F4A9507
:10024000D1F708958F929F92AF92BF92CF92DF9293
:10025000EF92FF924B015C010E94FD006B017C015B
:100260000E94FD006C197D098E099F09683E73404C
:1002700081059105A8F321E0821A9108A108B1082F
:1002800088EEC80E83E0D81EE11CF11C8114910495
:10029000A104B10429F7FF90EF90DF90CF90BF90B9
:1002A000AF909F908F900895089520914302260F5C
:1002B0003327331F21323105ECF42091F903FC017F
:1002C00090E080E0243069F082E00895A09143023C
:1002D0002191AC014D5D5D4FA40FB52FB11D2C9345
:1002E0000196861798F380914302680F609343024A
:1002F00080E0089581E008951092F90381E08093F1
:10030000F8031092D30361E082E10E94B10061E042
:1003100083E10E94B100E9EBF0E080818E7F808371
:1003200080818D7F808388E48093B80085E480930A
:10033000BC000895CF93DF9391E09093220288232D
:10034000B9F0C091B800D091BA008091BC008A7B0E
:100350008093BC0060E082E10E94B10060E083E134
:100360000E94B1000E947C01D093BA00C093B800F3
:10037000DF91CF910895CF92DF92EF92FF920F938A
:100380001F93CF93DF93D091220481E0D13208F004
:100390009CC0C09121040E94FD006B017C018091F2
:1003A000F90381116CC082E08093F90381E08093AE
:1003B000F8038FEF8093F7031092F603D093F503C1
:1003C000A1E0B4E0E5EDF3E080E0D8138DC0109239
:1003D000D4038091D403CC0FC82BC093D403809155
:1003E000D303813009F084C01092D3030E94FD0032
:1003F0006B017C018091D4038093BB008091FB034F
:100400009091FC03A091FD03B091FE03892B8A2BF0
:100410008B2BA1F00E94FD000091FB031091FC03C7
:100420002091FD033091FE036C197D098E099F090F
:10043000061717072807390708F442C08091BC0047
:1004400083FDD8CF85EC8093BC000E94FD006B013A
:100450007C018091F903823009F44CC08091F7034C
:100460008F3F09F469C08091F703803209F466C0B8
:100470008091F703803309F463C084E026C0809143
:10048000FB039091FC03A091FD03B091FE03892B27
:100490008A2B8B2B09F483CF0E94FD000091FB0374
:1004A0001091FC032091FD033091FE036C197D092E
:1004B0008E099F09061717072807390708F06FCF1D
:1004C0008091FA030E949A0185E010920004109234
:1004D00022041092FF03DF91CF911F910F91FF90A3
:1004E000EF90DF90CF9008959D9191938F5F6DCFA6
:1004F00085EEA9CF8091FB039091FC03A091FD03B1
:10050000B091FE03892B8A2B8B2B09F4A2CF0E947A
:10051000FD000091FB031091FC032091FD0330913D
:10052000FE036C197D098E099F0906171707280716
:10053000390708F08ECFC4CF80E0C7CF82E0C5CFA7
:1005400083E0C3CF0895E091740280917302E817AD
:1005500030F4F0E0EE5FFD4F808190E008958FEF82
:100560009FEF089590917402809173022FEF3FEFF7
:10057000981748F4E92FF0E0EE5FFD4F208130E05E
:100580009F5F90937402C9010895809173029091C6
:100590007402891B990B0895CF92DF92EF92FF921C
:1005A0000F931F93CF93DF937C01CB018A0120919E
:1005B000FF03222389F0EB016B01C40ED51ECC157D
:1005C000DD0569F06991D701ED91FC910190F08111
:1005D000E02DC7010995F3CF642F0E945501C80192
:1005E000DF91CF911F910F91FF90EF90DF90CF900F
:1005F0000895CF93DF931F92CDB7DEB76983209123
:10060000FF032223F9F020912204203258F021E048
:1006100030E0FC013383228390E080E00F90DF9193
:10062000CF91089580910004E82FF0E0EF5FFB4F39
:10063000998190838F5F809300048093220481E0EE
:1006400090E0ECCF61E0CE0101960E945501F7CF1A
:10065000CF93DF93EB01FC01828591E09093FF0340
:10066000809321041092000410922204688183E296
:1006700094E00E94F90265E070E080E090E00E9462
:100680002201698183E294E00E94F90265E070E052
:1006900080E090E00E942201DF91CF910C94BB0199
:1006A000CF93DF9300D01F92CDB7DEB71B8290E8C7
:1006B00099838A83BE016F5F7F4F8FE294E00E942F
:1006C00028030F900F900F90DF91CF910895CF9353
:1006D000DF9300D01F92CDB7DEB71B8220E42983C1
:1006E0006A83BE016F5F7F4F0E94280381E090E024
:1006F0000F900F900F90DF91CF910895CF93C62F59
:1007000090913A0421E02093FF03909321041092EA
:10071000000410922204682F83E294E00E94F90200
:100720006C2F83E294E00E94F902CF910C94BB01FC
:1007300090E080E008958F929F92AF92BF920F93C6
:100740001F93CF93DF93CDB7DEB7A1970FB6F89481
:10075000DEBF0FBECDBF19A2423008F44AE08E01C1
:100760000F5D1F4F842E912CB12CA12CA50194015B
:100770000E94E609E62FB901CA01EA3044F5E05DBE
:10078000D801EE938D01232B242B252B79F790E0B4
:1007900080E0109769F0FD0101900020E9F73197A2
:1007A000AF014A1B5B0BBD018FE294E00E94840005
:1007B000A1960FB6F894DEBF0FBECDBFDF91CF91EB
:1007C0001F910F91BF90AF909F908F900895E95C1B
:1007D000D7CF85ED8093BC008091FB039091FC0303
:1007E000A091FD03B091FE030796A11DB11D23E06A
:1007F000B695A795979587952A95D1F72091BC0036
:1008000024FD03C01092F90308954091FB03509119
:10081000FC036091FD037091FE03452B462B472B93
:1008200069F30097A105B10541F025E32A95F1F799
:1008300000000197A109B109E1CF8091FA030C945E
:100840009A011F920F920FB60F9211242F933F938C
:100850008F939F93AF93BF938091670290916802AB
:10086000A0916902B0916A023091660223E0230FE1
:100870002D3758F50196A11DB11D20936602809376
:10088000670290936802A0936902B0936A02809114
:100890006B0290916C02A0916D02B0916E02019674
:1008A000A11DB11D80936B0290936C02A0936D0209
:1008B000B0936E02BF91AF919F918F913F912F9115
:1008C0000F900FBE0F901F90189526E8230F0296E9
:1008D000A11DB11DD2CF1F920F920FB60F921124FE
:1008E0002F933F934F935F936F937F938F939F9338
:1008F000AF93BF93EF93FF938091B900887F8036C9
:1009000009F44AC0F0F5883209F4A7C018F580311F
:1009100009F49BC0B8F4882309F4F9C0883009F4BD
:1009200094C0FF91EF91BF91AF919F918F917F9173
:100930006F915F914F913F912F910F900FBE0F904C
:100940001F901895883109F488C0803251F7809340
:10095000F70314C0803409F49DC040F48033B9F328
:100960008833F9F68093F70385ECB0C0803509F43D
:1009700085C0883509F496C0883499F60E94E90349
:10098000D0CF883909F48CC038F5883729F050F475
:10099000883611F0803729F683E08093F9031092AE
:1009A000650257C0883809F47BC0803919F0803857
:1009B00009F0B7CF80916502803208F071C0E091F4
:1009C000650281E08E0F809365028091BB00F0E0AC
:1009D000EB5BFD4F80833DC0803B39F0E0F4803A13
:1009E00009F479C0883A09F09CCF84E08093F90338
:1009F0001092440210924302E0917102F09172024F
:100A000009958091430281110FC081E080934302D8
:100A10001092230209C0803C09F4A6CF883C09F457
:100A2000A3CF883B09F07DCFE091440281E08E0F97
:100A300080934402F0E0ED5DFD4F80818093BB0028
:100A4000909144028091430229C08091D403809305
:100A5000BB0085EC8093BC0064CF9091F60380913D
:100A6000F503981758F5E091F60381E08E0F809317
:100A7000F603F0E0EB52FC4F8081E9CFE091F60302
:100A800081E08E0F8093F6038091BB00F0E0EB5283
:100A9000FC4F80839091F6038091F5039817C8F27C
:100AA00085E8D8CFE091F60381E08E0F8093F603BE
:100AB0008091BB00F0E0EB52FC4F80838091F80303
:100AC00081115CCF81E08093D30384EA8093BC00E2
:100AD0001092F90326CF85EC8093BC001092F903A5
:100AE00080916502803230F4E0916502F0E0EB5BCA
:100AF000FD4F10826091650270E0E0916F02F0910D
:100B0000700285E492E00995109265020ACF109276
:100B1000F70334CFE3E2F4E01382128288EE93E02D
:100B2000A0E0B0E084839583A683B78388EE91E04C
:100B300091838083EFE2F4E0138212828AEF91E0E6
:100B4000918380838EE3828780E6838780E1848738
:100B500082E085870895CF93DF9300D01F92CDB7B1
:100B6000DEB7789484B5826084BD84B5816084BD2D
:100B700085B5826085BD85B5816085BD80916E003B
:100B8000816080936E00109281008091810082606C
:100B900080938100809181008160809381008091A9
:100BA00080008160809380008091B1008460809398
:100BB000B1008091B00081608093B00080917A0094
:100BC000846080937A0080917A00826080937A00BA
:100BD00080917A00816080937A0080917A008068A9
:100BE00080937A001092C1001092740210927302E6
:100BF00010920004109222040E947C0182E890E08E
:100C0000909372028093710283E890E09093700257
:100C100080936F021092330480913C04823018F06C
:100C200098E090933304809337041092380462E381
:100C300070E080E090E00E942201809133048062A5
:100C40000E94500365E070E080E090E00E94220185
:100C50008091330480620E94500365E070E080E080
:100C600090E00E9422018091330480620E94500330
:100C700084E0809334048CE00E94500381E00E9461
:100C800050038BE39FE10197F1F782E080933504F5
:100C900086E00E94500360E080E00E947E036FEFD8
:100CA00088E00E947E0360E281E00E947E036FEF95
:100CB00084E00E947E036FEF83E00E947E036FEF6B
:100CC00082E00E947E036FEF84E00E947E0360E07A
:100CD00083E00E947E0360E082E00E947E038091B8
:100CE000CD039091CE0330E020E0B6E09B2E12E0E1
:100CF000E12EF12CF0E0E0E0929E8001939E100D39
:100D000011245901AA0CBB1CA20EB31E25C06801F8
:100D1000CE0EDF1ECC0CDD1CA60149595C4F6A01CA
:100D20008091C7039091C8034091C9035091CA03B1
:100D3000840F951F4091CB035091CC03840F951FD6
:100D4000B7010E94D209D6018D939C93319690E011
:100D500080E0E630F10574F583309105C4F6DC01DE
:100D6000AA0FBB1FAD0149535C4F3A01B501680F93
:100D7000791F660F771F6C547E4F989EA001999E35
:100D8000500D11244E0F5F1F440F551F40575E4FEB
:100D9000DB01CD90DC90DA016D917C91C69EA001C3
:100DA000C79E500DD69E500D1124D3014D935C93D8
:100DB0000196CFCF2F5F3F4F2830310509F09ACFF2
:100DC00030E020E076E0B72E02E010E083309105BD
:100DD00009F00EC1F901EE0FFF1FEB5AFC4F809195
:100DE0006303909164036091610370916203860FC5
:100DF000971F6091650370916603860F971FB80176
:100E00000E94D209918380832F5F3F4F90E080E062
:100E100026303105DCF250E040E030E020E070E0C8
:100E200060E0233031050CF008C1F901EE0FFF1F1F
:100E3000E20FF31FE60FF71FEE0FFF1FE35CFC4FFF
:100E4000DA01AA0FBB1FA40FB51FA20FB31FAA0F71
:100E5000BB1FA858BE4F0D90BC91A02DB183A0839D
:100E60002F5F3F4F63307105E4F243305105BCF210
:100E7000ADE3B3E0E9E1F3E02D913C9111973183CB
:100E8000208312962D913C911397338322831496DD
:100E90002D913C9115973583248316963C9623E03B
:100EA000ED33F20749F721E030E03093200320933F
:100EB0001F03109222031092210310922403109218
:100EC000230310922C0310922B0330932E032093B4
:100ED0002D031092300310922F03109238031092BA
:100EE000370310923A031092390330933C03209356
:100EF0003B0370E060E030E020E016E050E040E0CE
:100F0000263031050CF0A0C0F901EE0FFF1FE20FF3
:100F1000F31FE40FF51FEE0FFF1FEB50FD4F169F61
:100F2000D001179FB00D1124A20FB31FAA0FBB1F32
:100F3000A75EBC4F0D90BC91A02DB183A0832F5F05
:100F40003F4F43305105E4F263307105BCF23093FA
:100F5000500320934F0370935203609351035093B7
:100F600054034093530330E020E046E002E010E0F9
:100F70008330910509F06FC0F901EE0FFF1FED51AD
:100F8000FD4F8091EF029091F0026091F10270911B
:100F9000F202860F971F6091F3027091F402860FA0
:100FA000971FB8010E94D209918380832F5F3F4F22
:100FB00090E080E026303105DCF250E040E0863001
:100FC00091050CF46BC04F5F5F4F90E080E04330C1
:100FD0005105ACF350E040E090E080E026E0F22ED6
:100FE00030E020E0F49E8001F59E100D11247EC0BB
:100FF000BC01660F771FDB01AF59BC4F66577E4FB0
:10100000B89EF001B99EF00D1124E20FF31FEE0F10
:10101000FF1FAF0140575E4FFB01E080F180FA01F6
:1010200040815181E49EB001E59E700DF49E700DEB
:1010300011246D937C930196EBCE4F5F5F4F6F5FF2
:101040007F4F30E020E00ECF6F5F7F4F4F5F5F4FED
:1010500030E020E076CFBC01660F771FDB01A151A5
:10106000BD4F489FF001499FF00D1124E20FF31F7F
:10107000EE0FFF1FE057FE4F66577E4FE080F18076
:10108000FB01C080D180EC9CB001ED9C700DFC9CFC
:10109000700D11246D937C9301968CCF9C01220FCF
:1010A000331FD901A952BD4FF901E80FF91FE40F11
:1010B000F51FEE0FFF1FEB50FD4F2D513D4F0081EF
:1010C0001181F90160817181069F9001079F300DA8
:1010D000169F300D11242D933C93019678CF2F5FEE
:1010E0003F4F90E080E02630310554F58330910584
:1010F000B4F7BC01660F771F65537D4FD801A20F6F
:10110000B31FAA0FBB1FA959BC4FF901EE0FFF1F58
:10111000E20FF31FE80FF91FEE0FFF1FEB50FD4F1B
:10112000CD90DC90A081B181CA9EF001CB9EF00DE4
:10113000DA9EF00D1124DB01ED93FC930196D3CFE1
:101140004F5F5F4F4830510509F04ACF50E040E013
:1011500086309105DCF04F5F5F4F90E080E04330D8
:101160005105B4F330E020E012E0E12EF12C06E06E
:10117000902EF0E0E0E08901000F111F020F131F15
:10118000929E5001939EB00C11245AC0FC01EE0FA8
:10119000FF1FDF01A154BD4FBF016B5A7C4FE80F09
:1011A000F91FE40FF51FEE0FFF1F9F012B503D4F5E
:1011B000FB0100811181F90160817181069F90011D
:1011C000079F300D169F300D11242D933C930196EF
:1011D000C6CF6801CE0EDF1ECC0CDD1CA60149581F
:1011E0005D4F6A018091B3029091B4024091B502C3
:1011F0005091B602840F951F4091B7025091B802EA
:10120000840F951F4091B9025091BA02840F951F27
:101210004091BB025091BC02840F951F4091BD02CA
:101220005091BE02840F951FB7010E94D209D601CA
:101230008D939C93319690E080E0E330F1055CF56E
:101240008630910531F2AC01440F551FBA016D543F
:101250007D4F3B01B501680F791F660F771F605006
:101260007F4F480F591F4E0F5F1F440F551F4B50A4
:101270005D4FDB01CD90DC90DA016D917C91C69ED3
:10128000A001C79E500DD69E500D1124D3014D9341
:101290005C930196D2CF2F5F3F4F2A30310509F082
:1012A00068CF9093CE038093CD03F093D003E09367
:1012B000CF031092D2031092D1030BE31FE1809170
:1012C000D1039091D2030A970CF052C0109276028B
:1012D000109275028091750290917602E090D10390
:1012E000F090D203833091057CF5F701EE0FFF1FDC
:1012F000EE0DFF1DE80FF91FEE0FFF1FE958FD4F20
:10130000C080D1800D2C000CEE08FF084AE0C70118
:10131000B601F7FE0DC06DE28FE294E00E94670314
:1013200066277727CB016C197D098E099F094AE052
:101330000E949B0380917502909176020196909392
:10134000760280937502C6CF6CED75E080E090E088
:101350000E94220181E00E945003C8010197F1F729
:10136000BFEFEB1AFB0AF092D203E092D103A7CFB2
:101370001B8280E8898380EC8A83BE016F5F7F4F88
:101380008FE294E00E94280364E670E080E090E041
:101390000E94220100E010E001151105E9F30E940E
:1013A0000000FACF97FB072E16F4009407D077FDC4
:1013B00009D00E94080A07FC05D03EF4909581955B
:1013C0009F4F0895709561957F4F0895A1E21A2E61
:1013D000AA1BBB1BFD010DC0AA1FBB1FEE1FFF1FD9
:1013E000A217B307E407F50720F0A21BB30BE40B29
:1013F000F50B661F771F881F991F1A9469F7609570
:101400007095809590959B01AC01BD01CF01089529
:10141000AA1BBB1B51E107C0AA1FBB1FA617B7071A
:1014200010F0A61BB70B881F991F5A95A9F7809536
:101430009095BC01CD010895EE0FFF1F0590F4912A
:08144000E02D0994F894FFCFA0
:101448000000000000000000000000000000000094
:101458000000000000000100000000000000000083
:101468000100000000000000000001000000000072
:101478000000000001000000000000000000010062
:101488000000000000000000010000000000000053
:101498000000000001000000000000000100000042
:1014A8000000000001000000000001000000010031
:1014B8000000010000000000010000000100000021
:1014C800010001000100010000000000000001000F
:1014D8000100000000000100000001000000010000
:1014E80000000000010001000000000001000100F0
:1014F80001000000000000000000000000000100E2
:1015080000000100000000000100010001000000CF
:1015180000000100000001000100010000000100BE
:101528000100010000000000F902CC029803A202A9
:10153800C502B202A30200000000670384009803FA
:0215480054014C
:00000001FF
