:020000040000FA
:100000000C9458000C9480000C9480000C94800098
:100010000C9480000C9480000C9480000C94800060
:100020000C9480000C9480000C9480000C94800050
:100030000C9480000C9480000C9480000C94800040
:100040000C94FC020C9480000C94CA020C94A40240
:100050000C9480000C9480000C9480000C94800020
:100060000C9446030C94800000000000250028003A
:100070002B00040404040404040402020202020229
:10008000030303030303010204081020408001025C
:1000900004081020010204081020000000080002DB
:1000A00001000003040700000000000000006104DC
:1000B00011241FBECFEFD8E0DEBFCDBF11E0A0E01E
:1000C000B1E0E2E5FAE002C005900D92A032B1077E
:1000D000D9F722E0A0E2B1E001C01D92A733B20738
:1000E000E1F710E0C8E5D0E004C02197FE010E94CE
:1000F0002105C735D107C9F70E948E040C94270546
:100100000C940000AF92BF92CF92DF92EF92FF92D9
:100110000F931F93CF93DF936C017B018B01040F2F
:10012000151FEB015E01AE18BF08C017D10759F0CB
:100130006991D601ED91FC910190F081E02DC6010D
:100140000995892B79F7C501DF91CF911F910F9107
:10015000FF90EF90DF90CF90BF90AF900895FC019B
:10016000538D448D252F30E0842F90E0821B930B1C
:10017000541710F0CF96089501970895FC01918DC2
:10018000828D981761F0A28DAE0FBF2FB11D5D96C5
:100190008C91928D9F5F9F73928F90E008958FEF67
:1001A0009FEF0895FC01918D828D981731F0828D1B
:1001B000E80FF11D858D90E008958FEF9FEF089572
:1001C000FC01918D228D892F90E0805C9F4F821BD6
:1001D00091098F73992708958AE991E00E94E000C0
:1001E00021E0892B09F420E0822F089580E090E03F
:1001F000892B29F00E94EC0081110C9400000895D5
:10020000FC01A48DA80FB92FB11DA35ABF4F2C918B
:10021000848D90E001968F739927848FA689B78982
:100220002C93A089B1898C91837080648C93938D79
:10023000848D981306C00288F389E02D80818F7D1C
:1002400080830895EF92FF920F931F93CF93DF93D4
:10025000EC0181E0888F9B8D8C8D98131AC0E88902
:10026000F989808185FF15C09FB7F894EE89FF89D1
:100270006083E889F98980818370806480839FBF6F
:1002800081E090E0DF91CF911F910F91FF90EF906F
:100290000895F62E0B8D10E00F5F1F4F0F7311277F
:1002A000E02E8C8D8E110CC00FB607FCFACFE889BA
:1002B000F989808185FFF5CFCE010E940001F1CF41
:1002C000EB8DEC0FFD2FF11DE35AFF4FF0829FB72E
:1002D000F8940B8FEA89FB8980818062CFCFCF931E
:1002E000DF93EC01888D8823B9F0AA89BB89E8895E
:1002F000F9898C9185FD03C0808186FD0DC00FB604
:1003000007FCF7CF8C9185FFF2CF808185FFEDCF81
:10031000CE010E940001E9CFDF91CF91089590E0D6
:10032000FC01E656FF4F2491FC01EA57FF4F349140
:10033000FC01EE58FF4FE491EE23C9F0222339F07F
:10034000233001F1A8F4213019F1223029F1F0E035
:10035000EE0FFF1FE859FF4FA591B4918FB7F894A6
:10036000EC91611126C030953E233C938FBF0895D8
:100370002730A9F02830C9F0243049F78091800057
:100380008F7D03C0809180008F7780938000DFCFC6
:1003900084B58F7784BDDBCF84B58F7DFBCF809113
:1003A000B0008F778093B000D2CF8091B0008F7D66
:1003B000F9CF3E2BDACF20914701260F3327331F89
:1003C00021323105ECF420916B01FC0190E080E0DA
:1003D000243069F082E00895A09147012191AC0199
:1003E000495D5E4FA40FB52FB11D2C930196861762
:1003F00098F380914701680F6093470180E008956A
:1004000081E0089508958FEF9FEF08958FEF9FEF9C
:1004100008958091200190E091958195910908952A
:10042000CF93DF93CB01EA01642F0E94DB01CE0161
:10043000DF91CF910895CF93DF931F92CDB7DEB7B1
:10044000698361E0CE0101960E94DB0181E090E0CA
:100450000F90DF91CF91089590E080E008951F9371
:10046000CF93DF9385ED8093BC0080912301909121
:100470002401A0912501B09126010796A11DB11D6F
:1004800023E0B695A795979587952A95D1F7209162
:10049000BC0024FD03C010926B0152C040912301A7
:1004A000509124016091250170912601452B462B26
:1004B000472B69F30097A105B10541F025E32A9583
:1004C000F1F700000197A109B109E1CF8091220164
:1004D000C1E0C0932101882399F1D091B800109117
:1004E000BA008091BC008A7B8093BC0060E082E10E
:1004F0000E948F0160E083E10E948F0110926B01E6
:10050000C0936D0110926C0161E082E10E948F0145
:1005100061E083E10E948F018091B9008E7F80931A
:10052000B9008091B9008D7F8093B90088E48093F1
:10053000B80085E48093BC001093BA00D093B80053
:10054000DF91CF911F9108951F920F920FB60F92D6
:1005500011242F933F934F935F936F937F938F93C8
:100560009F93AF93BF93EF93FF938AE991E00E942B
:100570000001FF91EF91BF91AF919F918F917F917A
:100580006F915F914F913F912F910F900FBE0F9000
:100590001F9018951F920F920FB60F9211242F9350
:1005A0008F939F93EF93FF93E091AA01F091AB019A
:1005B0008081E091B001F091B10182FD1BC090817A
:1005C0008091B3018F5F8F732091B401821741F046
:1005D000E091B301F0E0E656FE4F958F8093B301B2
:1005E000FF91EF919F918F912F910F900FBE0F90E0
:1005F0001F9018958081F4CF1F920F920FB60F9223
:1006000011242F933F938F939F93AF93BF93809128
:10061000960190919701A0919801B0919901309124
:10062000950123E0230F2D3758F50196A11DB11D2B
:10063000209395018093960190939701A093980140
:10064000B09399018091910190919201A0919301B1
:10065000B09194010196A11DB11D809391019093D9
:100660009201A0939301B0939401BF91AF919F9198
:100670008F913F912F910F900FBE0F901F90189563
:1006800026E8230F0296A11DB11DD2CF1F920F9213
:100690000FB60F9211242F933F934F935F936F9355
:1006A0007F938F939F93AF93BF93EF93FF9380912B
:1006B000B900887F803609F44AC0F0F5883209F421
:1006C000A5C018F5803109F499C0B8F4882309F45D
:1006D000F5C0883009F492C0FF91EF91BF91AF91BE
:1006E0009F918F917F916F915F914F913F912F914A
:1006F0000F900FBE0F901F901895883109F486C097
:10070000803251F780936A0114C0803409F49BC091
:1007100040F48033B9F38833F9F680936A0185ECAD
:10072000AEC0803509F483C0883509F494C088349C
:1007300099F60E942F02D0CF883909F48AC038F583
:10074000883729F050F4883611F0803729F683E095
:1007500080936B011092690155C0883809F479C003
:10076000803919F0803809F0B7CF80916901803263
:1007700008F06FC0E091690181E08E0F80936901FC
:100780008091BB00F0E0E75BFE4F80833BC0803B85
:1007900039F0D0F4803A09F477C0883A09F09CCF58
:1007A00084E080936B011092480110924701F0E0C1
:1007B000E0E009958091470181110FC081E08093AD
:1007C00047011092270109C0803C09F4A8CF883C5A
:1007D00009F4A5CF883B09F07FCFE091480181E083
:1007E0008E0F80934801F0E0E95DFE4F8081809399
:1007F000BB00909148018091470129C080919001F0
:100800008093BB0085EC8093BC0066CF90918F01F4
:1008100080918E01981758F5E0918F0181E08E0F3D
:1008200080938F01F0E0E259FE4F8081E9CFE091A3
:100830008F0181E08E0F80938F018091BB00F0E0EB
:10084000E259FE4F808390918F0180918E0198171D
:10085000C8F285E8D8CFE0918F0181E08E0F8093B8
:100860008F018091BB00F0E0E259FE4F80838091C0
:100870006D0181115ECF81E080936C0184EA8093E9
:10088000BC0010926B0128CF85EC8093BC001092C5
:100890006B0180916901803230F4E0916901F0E0F0
:1008A000E75BFE4F10826091690170E089E491E09E
:1008B000F0E0E0E00995109269010ECF10926A0114
:1008C00038CFEAE9F1E01382128288EE93E0A0E0EB
:1008D000B0E084839583A683B78384E091E091831D
:1008E000808385EC90E09587848784EC90E09787FF
:1008F000868780EC90E0918B808B81EC90E0938BED
:10090000828B82EC90E0958B848B86EC90E0978BC9
:10091000868B118E128E138E148E0895789484B562
:10092000826084BD84B5816084BD85B5826085BDEB
:1009300085B5816085BD80916E00816080936E0079
:10094000109281008091810082608093810080916B
:10095000810081608093810080918000816080931C
:1009600080008091B10084608093B1008091B000DC
:1009700081608093B00080917A00846080937A00D7
:1009800080917A00826080937A0080917A00816001
:1009900080937A0080917A00806880937A00109228
:1009A000C100E091AA01F091AB0182E08083E09167
:1009B000A601F091A7011082E091A801F091A90190
:1009C0008FEC80831092B201E091AE01F091AF0103
:1009D00086E08083E091AC01F091AD01808180617F
:1009E0008083E091AC01F091AD01808188608083CB
:1009F000E091AC01F091AD01808180688083E0914D
:100A0000AC01F091AD0180818F7D8083C0E0D0E0AA
:100A10004AE050E062E171E08AE991E00E948200E0
:100A200042E050E06DE171E08AE991E00E948200CD
:100A3000209771F30E94EC00882351F30E9400007C
:100A4000E7CFEE0FFF1F0590F491E02D0994F89485
:100A5000FFCF0000000022018200AF006F01E00024
:100A6000BE00D200486F6C61206D756E646F000D22
:020A70000A007A
:107E0000112484B714BE81FFF0D085E080938100F7
:107E100082E08093C00088E18093C10086E0809377
:107E2000C20080E18093C4008EE0C9D0259A86E02C
:107E300020E33CEF91E0309385002093840096BBD3
:107E4000B09BFECF1D9AA8958150A9F7CC24DD24C4
:107E500088248394B5E0AB2EA1E19A2EF3E0BF2EE7
:107E6000A2D0813461F49FD0082FAFD0023811F036
:107E7000013811F484E001C083E08DD089C08234E0
:107E800011F484E103C0853419F485E0A6D080C0E4
:107E9000853579F488D0E82EFF2485D0082F10E0AE
:107EA000102F00270E291F29000F111F8ED06801E7
:107EB0006FC0863521F484E090D080E0DECF843638
:107EC00009F040C070D06FD0082F6DD080E0C81688
:107ED00080E7D80618F4F601B7BEE895C0E0D1E017
:107EE00062D089930C17E1F7F0E0CF16F0E7DF06D8
:107EF00018F0F601B7BEE89568D007B600FCFDCFD4
:107F0000A601A0E0B1E02C9130E011968C91119780
:107F100090E0982F8827822B932B1296FA010C0160
:107F200087BEE89511244E5F5F4FF1E0A038BF0790
:107F300051F7F601A7BEE89507B600FCFDCF97BE46
:107F4000E89526C08437B1F42ED02DD0F82E2BD052
:107F50003CD0F601EF2C8F010F5F1F4F84911BD097
:107F6000EA94F801C1F70894C11CD11CFA94CF0C13
:107F7000D11C0EC0853739F428D08EE10CD085E9AC
:107F80000AD08FE07ACF813511F488E018D01DD067
:107F900080E101D065CF982F8091C00085FFFCCF94
:107FA0009093C60008958091C00087FFFCCF809118
:107FB000C00084FD01C0A8958091C6000895E0E648
:107FC000F0E098E1908380830895EDDF803219F02E
:107FD00088E0F5DFFFCF84E1DECF1F93182FE3DFCA
:107FE0001150E9F7F2DF1F91089580E0E8DFEE27F6
:047FF000FF270994CA
:027FFE00040479
:00000001FF
