:100000000C9462000C948A000C948A000C948A0070
:100010000C948A000C948A000C948A000C948A0038
:100020000C948A000C948A000C948A000C948A0028
:100030000C948A000C948A000C948A000C948A0018
:100040000C94E8040C948A000C948A000C948A00A6
:100050000C948A000C948A000C948A000C948A00F8
:100060000C9432050C948A00000000002300260046
:10007000290000000008000201000003040700003E
:1000800000000000000000000000250028002B00F8
:1000900000000000240027002A00040404040404D3
:1000A0000404020202020202030303030303010227
:1000B00004081020408001020408102001020408F6
:1000C0001020510611241FBECFEFD8E0DEBFCDBFF8
:1000D00012E0A0E0B1E0EAECFEE102C005900D9272
:1000E000AC30B107D9F727E0ACE0B2E001C01D9217
:1000F000A63EB207E1F710E0C2E6D0E004C02197C7
:10010000FE010E945D0FC136D107C9F70E94720639
:100110000C94630F0C940000CF93DF9390E0FC01EC
:10012000E255FF4F249186569F4FFC01849188230E
:10013000C1F090E0880F991FFC01E057FF4FC59177
:10014000D491FC01EA57FF4FA591B4919FB7F89461
:100150008881E22FE0958E2388838C91E823EC93AD
:100160009FBFDF91CF91089508950895AF92BF92F8
:10017000CF92DF92EF92FF920F931F93CF93DF9373
:100180006C017B018B01040F151FEB015E01AE18A2
:10019000BF08C017D10759F06991D601ED91FC91C4
:1001A0000190F081E02DC6010995892B79F7C501F1
:1001B000DF91CF911F910F91FF90EF90DF90CF9043
:1001C000BF90AF900895833081F028F4813099F08A
:1001D0008230A9F008958730A9F08830C9F08430C2
:1001E000B1F4809180008F7D03C0809180008F7773
:1001F00080938000089584B58F7784BD089584B579
:100200008F7DFBCF8091B0008F778093B0000895F1
:100210008091B0008F7DF9CFCF93DF93282F30E00E
:10022000F901EE58FF4F8491F901E255FF4FD49147
:10023000F901E656FF4FC491CC23A1F081110E9431
:10024000E300EC2FF0E0EE0FFF1FE859FF4FA59100
:10025000B491EC91ED2381E090E009F480E0DF912E
:10026000CF91089580E090E0FACF1F93CF93DF9372
:10027000282F30E0F901EE58FF4F8491F901E25543
:10028000FF4FD491F901E656FF4FC491CC23A9F05A
:10029000162F81110E94E300EC2FF0E0EE0FFF1FFC
:1002A000EA57FF4FA591B4918FB7F894EC911111D3
:1002B00008C0D095DE23DC938FBFDF91CF911F91D3
:1002C0000895DE2BF8CF3FB7F89480917502909196
:1002D0007602A0917702B091780226B5A89B05C05E
:1002E0002F3F19F00196A11DB11D3FBFBA2FA92FB5
:1002F000982F8827BC01CD01620F711D811D911DB2
:1003000042E0660F771F881F991F4A95D1F708951D
:100310008F929F92AF92BF92CF92DF92EF92FF9215
:100320004B015C010E9463016B017C010E9463012F
:100330006C197D098E099F09683E734081059105FE
:10034000A8F321E0821A9108A108B10888EEC80E2E
:1003500083E0D81EE11CF11C81149104A104B104B6
:1003600029F7FF90EF90DF90CF90BF90AF909F90D4
:100370008F900895089520914D02260F3327331F43
:1003800021323105ECF42091A107FC0190E080E0DE
:10039000243069F082E00895A0914D022191AC01D2
:1003A000435D5D4FA40FB52FB11D2C9301968617A9
:1003B00098F380914D02680F60934D0280E008959C
:1003C00081E008951092A10781E08093A007109228
:1003D0007B0761E082E10E94350161E083E10E94D8
:1003E0003501E9EBF0E080818E7F808380818D7F15
:1003F000808388E48093B80085E48093BC000895EE
:10040000CF93DF9391E090932C028823B9F0C091B1
:10041000B800D091BA008091BC008A7B8093BC0068
:1004200060E082E10E94350160E083E10E943501D5
:100430000E94E201D093BA00C093B800DF91CF913F
:100440000895CF92DF92EF92FF920F931F93CF9375
:10045000DF93D091CA0781E0D13208F09CC0C091EF
:10046000C9070E9463016B017C018091A107811182
:100470006CC082E08093A10781E08093A0078FEF9A
:1004800080939F0710929E07D0939D07A9EAB7E03B
:10049000EDE7F7E080E0D8138DC010927C078091E3
:1004A0007C07CC0FC82BC0937C0780917B078130E1
:1004B00009F084C010927B070E9463016B017C01EC
:1004C00080917C078093BB008091A3079091A40743
:1004D000A091A507B091A607892B8A2B8B2BA1F0A1
:1004E0000E9463010091A3071091A4072091A50722
:1004F0003091A6076C197D098E099F090617170709
:100500002807390708F442C08091BC0083FDD8CF8A
:1005100085EC8093BC000E9463016B017C0180919B
:10052000A107823009F44CC080919F078F3F09F4E6
:1005300069C080919F07803209F466C080919F074F
:10054000803309F463C084E026C08091A3079091B2
:10055000A407A091A507B091A607892B8A2B8B2B06
:1005600009F483CF0E9463010091A3071091A407AF
:100570002091A5073091A6076C197D098E099F0966
:10058000061717072807390708F06FCF8091A207D1
:100590000E94000285E01092A8071092CA071092EC
:1005A000A707DF91CF911F910F91FF90EF90DF9000
:1005B000CF9008959D9191938F5F6DCF85EEA9CFD8
:1005C0008091A3079091A407A091A507B091A607D9
:1005D000892B8A2B8B2B09F4A2CF0E9463010091F7
:1005E000A3071091A4072091A5073091A6076C19C5
:1005F0007D098E099F09061717072807390708F094
:100600008ECFC4CF80E0C7CF82E0C5CF83E0C3CF19
:100610000895E0917E0280917D02E81730F4F0E0C9
:10062000E45FFD4F808190E008958FEF9FEF089584
:1006300090917E0280917D022FEF3FEF981748F452
:10064000E92FF0E0E45FFD4F208130E09F5F909361
:100650007E02C901089580917D0290917E02891BDE
:10066000990B0895CF92DF92EF92FF920F931F9311
:10067000CF93DF937C01CB018A012091A70722232E
:1006800089F0EB016B01C40ED51ECC15DD0569F0B8
:100690006991D701ED91FC910190F081E02DC701A6
:1006A0000995F3CF642F0E94BB01C801DF91CF9160
:1006B0001F910F91FF90EF90DF90CF900895CF930F
:1006C000DF931F92CDB7DEB769832091A70722235E
:1006D000F9F02091CA07203258F021E030E0FC0107
:1006E0003383228390E080E00F90DF91CF910895D3
:1006F0008091A807E82FF0E0E755F84F99819083A3
:100700008F5F8093A8078093CA0781E090E0ECCFC9
:1007100061E0CE0101960E94BB01F7CFCF93C62FB7
:100720009091E20721E02093A7079093C9071092C8
:10073000A8071092CA07682F8BEC97E00E945F030E
:100740006C2F8BEC97E00E945F03CF910C942102F9
:10075000CF93DF93EB01FC01828591E09093A70793
:100760008093C9071092A8071092CA0768818BEC82
:1007700097E00E945F0365E070E080E090E00E94F7
:10078000880169818BEC97E00E945F0365E070E06F
:1007900080E090E00E948801DF91CF910C942102CB
:1007A000CF93DF9300D01F92CDB7DEB71B8290E8C6
:1007B00099838A83BE016F5F7F4F87ED97E00E9428
:1007C000A8030F900F900F90DF91CF91089581E0D3
:1007D0000E94D0038BE39FE10197F1F70895CF9337
:1007E000DF9300D01F92CDB7DEB7611112C08068D1
:1007F0001B8290E899838A83BE016F5F7F4F87EDEC
:1008000097E00E94A8030F900F900F90DF91CF9177
:100810000895806CEDCFCF93DF9300D01F92CDB7BA
:10082000DEB71B8220E429836A83BE016F5F7F4F9E
:100830000E94A80381E090E00F900F900F90DF914D
:10084000CF91089590E080E008958F929F92AF92AB
:10085000BF920F931F93CF93DF93CDB7DEB7A197CE
:100860000FB6F894DEBF0FBECDBF19A2423008F418
:100870004AE08E010F5D1F4F842E912CB12CA12CCC
:10088000A50194010E94270FE62FB901CA01EA30A1
:1008900044F5E05DD801EE938D01232B242B252B0D
:1008A00079F790E080E0109769F0FD010190002059
:1008B000E9F73197AF014A1B5B0BBD0187ED97E06C
:1008C0000E94B600A1960FB6F894DEBF0FBECDBF52
:1008D000DF91CF911F910F91BF90AF909F908F901C
:1008E0000895E95CD7CFFC0101900020E9F731972A
:1008F000AF01481B590BBC0187ED97E00C94B60083
:10090000CF92DF92EF92FF92CF93DF936C01990F1A
:10091000EE08FF08F7FE19C06DE287ED97E00E9430
:100920000B04EC0166277727CB016C197D098E0932
:100930009F094AE00E9425048C0F9D1FDF91CF91F3
:10094000FF90EF90DF90CF9008954AE0C701B60185
:10095000DF91CF91FF90EF90DF90CF900C94250422
:1009600085ED8093BC008091A3079091A407A0918E
:10097000A507B091A6070796A11DB11D23E0B69566
:10098000A795979587952A95D1F72091BC0024FDCE
:1009900003C01092A10708954091A3075091A407A6
:1009A0006091A5077091A607452B462B472B69F34D
:1009B0000097A105B10541F025E32A95F1F7000064
:1009C0000197A109B109E1CF8091A2070C9400021F
:1009D0001F920F920FB60F9211242F933F938F9374
:1009E0009F93AF93BF938091710290917202A091F7
:1009F0007302B09174023091700223E0230F2D37FF
:100A000058F50196A11DB11D2093700280937102CB
:100A100090937202A0937302B09374028091750256
:100A200090917602A0917702B09178020196A11D73
:100A3000B11D8093750290937602A0937702B093D4
:100A40007802BF91AF919F918F913F912F910F901D
:100A50000FBE0F901F90189526E8230F0296A11D38
:100A6000B11DD2CF1F920F920FB60F9211242F9368
:100A70003F934F935F936F937F938F939F93AF9326
:100A8000BF93EF93FF938091B900887F803609F47C
:100A90004AC0F0F5883209F4A7C018F5803109F48E
:100AA0009BC0B8F4882309F4F9C0883009F494C0D5
:100AB000FF91EF91BF91AF919F918F917F916F9136
:100AC0005F914F913F912F910F900FBE0F901F900C
:100AD0001895883109F488C0803251F780939F07B8
:100AE00014C0803409F49DC040F48033B9F38833D6
:100AF000F9F680939F0785ECB0C0803509F485C076
:100B0000883509F496C0883499F60E94B004D0CF95
:100B1000883909F48CC038F5883729F050F48836C4
:100B200011F0803729F683E08093A10710926F02BD
:100B300057C0883809F47BC0803919F0803809F033
:100B4000B7CF80916F02803208F071C0E0916F02E0
:100B500081E08E0F80936F028091BB00F0E0E15B3B
:100B6000FD4F80833DC0803B39F0E0F4803A09F4CA
:100B700079C0883A09F09CCF84E08093A107109255
:100B80004E0210924D02E0917B02F0917C02099599
:100B900080914D0281110FC081E080934D0210922F
:100BA0002D0209C0803C09F4A6CF883C09F4A3CFEC
:100BB000883B09F07DCFE0914E0281E08E0F80935B
:100BC0004E02F0E0E35DFD4F80818093BB00909189
:100BD0004E0280914D0229C080917C078093BB001A
:100BE00085EC8093BC0064CF90919E0780919D0717
:100BF000981758F5E0919E0781E08E0F80939E072D
:100C0000F0E0E358F84F8081E9CFE0919E0781E062
:100C10008E0F80939E078091BB00F0E0E358F84F61
:100C2000808390919E0780919D079817C8F285E870
:100C3000D8CFE0919E0781E08E0F80939E07809130
:100C4000BB00F0E0E358F84F80838091A00781114A
:100C50005CCF81E080937B0784EA8093BC00109294
:100C6000A10726CF85EC8093BC001092A10780914C
:100C70006F02803230F4E0916F02F0E0E15BFD4FF3
:100C8000108260916F0270E0E0917902F0917A0237
:100C90008FE492E0099510926F020ACF10929F079D
:100CA00034CFEBECF7E01382128288EE93E0A0E001
:100CB000B0E084839583A683B78382EE91E091832D
:100CC0008083E7EDF7E01382128284EF91E0918355
:100CD00080838EE3828780E6838780E1848782E059
:100CE00085870895CF93DF93CDB7DEB76A970FB6A8
:100CF000F894DEBF0FBECDBF789484B5826084BD0A
:100D000084B5816084BD85B5826085BD85B581600F
:100D100085BD80916E00816080936E00109281008D
:100D20008091810082608093810080918100816048
:100D30008093810080918000816080938000809109
:100D4000B10084608093B1008091B0008160809395
:100D5000B00080917A00846080937A0080917A005C
:100D6000826080937A0080917A00816080937A001B
:100D700080917A00806880937A001092C10010926E
:100D80007E0210927D021092A8071092CA070E945C
:100D9000E20184EB90E090937C0280937B0285EBF0
:100DA00090E090937A02809379021092DB07809111
:100DB000E407823018F098E09093DB078093DF0718
:100DC0001092E00762E370E080E090E00E9488010A
:100DD0008091DB0780620E94D00365E070E080E0D4
:100DE00090E00E9488018091DB0780620E94D0031E
:100DF00065E070E080E090E00E9488018091DB0770
:100E000080620E94D00384E08093DC078CE00E9423
:100E1000D0030E94E70382E08093DD0786E00E9412
:100E2000D00360E080E00E948E036FEF88E00E94B4
:100E30008E0360E281E00E948E036FEF84E00E94E7
:100E40008E036FEF83E00E948E036FEF82E00E94BB
:100E50008E03B6E0BB2E44244394512C89E00E94BB
:100E60000C0190937607809375078AE00E940C012D
:100E7000909378078093770782E00E940C0190930B
:100E80007A078093790783E00E940C01988B8F8703
:100E900090936A078093690784E00E940C011C010B
:100EA00090936C0780936B0785E00E940C019A8BEE
:100EB000898B90936E0780936D0786E00E940C01EA
:100EC0009C8B8B8B9093700780936F0787E00E94B9
:100ED0000C019E8B8D8B909372078093710788E035
:100EE0000E940C01988F8F8B9093740780937307E7
:100EF00089E00E948C008AE00E948C0082E00E94BF
:100F00008C0083E00E948C0084E00E948C0085E0CD
:100F10000E948C0086E00E948C0087E00E948C007A
:100F200088E00E948C00809163079091640730E014
:100F300020E0F0E0E0E0B29E7001B39EF00C1124DE
:100F40008901000F111F020F131F26C06701CE0E6B
:100F5000DF1ECC0CDD1CA6014350594F6A01809165
:100F60005D0790915E0740915F0750916007840F85
:100F7000951F4091610750916207840F951F62E0B1
:100F800070E00E94130FD6018D939C93319690E0F0
:100F900080E0E630F10574F583309105BCF6DC01A4
:100FA000AA0FBB1FAD01435A584F4A01B801680F41
:100FB000791F660F771F62557E4FB89EA001B99EBC
:100FC000500D11244E0F5F1F440F551F46575E4FA3
:100FD000DB01CD90DC90DA016D917C91C69EA00181
:100FE000C79E500DD69E500D1124D4014D935C9395
:100FF0000196CFCF2F5F3F4F2830310509F099CFB1
:1010000030E020E08330910509F095C0F901EE0F42
:10101000FF1FE551F94F8091F7069091F806409136
:10102000F9065091FA06840F951F4091FB065091E6
:10103000FC06840F951F62E070E00E94130F9183FD
:1010400080832F5F3F4F90E080E026303105D4F25F
:1010500030E020E050E040E070E060E02330310517
:101060000CF08EC0F901EE0FFF1FE20FF31FE60F29
:10107000F71FEE0FFF1FED52F94FDA01AA0FBB1F4A
:10108000A40FB51FA20FB31FAA0FBB1FA858BE4FB6
:101090000D90BC91A02DB183A0832F5F3F4F633093
:1010A0007105E4F243305105BCF2A3EDB6E0EFEA7E
:1010B000F6E02D913C9111973183208312962D916A
:1010C0003C9113973383228314962D913C9115976D
:1010D0003583248316963C9626E0E33DF20749F7D4
:1010E0005092B6064092B5061092B8061092B70616
:1010F0001092BA061092B9061092C2061092C1065A
:101100005092C4064092C3061092C6061092C506BD
:101110001092CE061092CD061092D0061092CF06F5
:101120005092D2064092D10630E020E070E060E0BC
:1011300050E040E086C0AC01440F551F8A010950C1
:10114000194FB89ED001B99EB00D1124A20FB31F44
:10115000AA0FBB1FA657BE4F4B58584F0D90BC91BE
:10116000A02DFA0160817181A69FA001A79F500D5B
:10117000B69F500D1124D8014D935C93019665CF15
:101180004F5F5F4F6F5F7F4F30E020E088CF63306D
:10119000710574F27093E8066093E7063093E606F3
:1011A0002093E5065093EA064093E90630E020E0FC
:1011B0008330910509F066C0F901EE0FFF1FE75873
:1011C000F94F80918506909186064091870650914F
:1011D0008806840F951F4091890650918A06840FD6
:1011E000951F62E070E00E94130F918380832F5F50
:1011F0003F4F90E080E026303105D4F230E020E02F
:10120000863091050CF463C02F5F3F4F90E080E083
:1012100023303105ACF350E040E090E080E030E076
:1012200020E0B49EB001B59E700D11247AC06F5FAE
:101230007F4F4F5F5F4F30E020E0433051050CF0AF
:10124000A6CF263031059CF7F901EE0FFF1FE20F04
:10125000F31FE40FF51FEE0FFF1FE557F94FB69E82
:10126000D001B79EB00D1124A20FB31FAA0FBB1F50
:10127000A155B94F0D90BC91A02DB183A0832F5FD4
:101280003F4FDBCFDC01AA0FBB1F8D010B57194F5E
:10129000AB58B84FB89EA001B99E500D1124420F13
:1012A000531F440F551F46575E4F0D90BC91A02D04
:1012B000FA0160817181A69FA001A79F500DB69F82
:1012C000500D1124D8014D935C93019694CFAC013D
:1012D000440F551F8A010359194FDA01A758B94F16
:1012E000480F591F420F531F440F551F4557594F61
:1012F0000D90BC91A02DFA0160817181A69FA00183
:10130000A79F500DB69F500D1124D8014D935C93AB
:1013100001967ECF2F5F3F4F90E080E02630310571
:101320006CF583309105B4F7FC01EE0FFF1FDF0170
:10133000AF59B94F6D018B01020F131F000F111F21
:101340000350194FD901AA0FBB1FA20FB31FA80F3B
:10135000B91FAA0FBB1FA557B94FF801E080F18054
:101360000D911C91E09ED001E19EB00DF09EB00D5C
:101370001124F601B183A0830196D0CF4F5F5F4F58
:101380004830510509F04BCF30E020E08630910520
:10139000B4F02F5F3F4F90E080E023303105B4F38D
:1013A00030E020E0F0E0E0E08901000F111F020FC3
:1013B000131FB29E7001B39EF00C11245BC0AC01F0
:1013C000440F551F8A010B5A194FDA01A551B94F25
:1013D000480F591F420F531F440F551F4557594F70
:1013E0000D90BC91A02DFA0160817181A69FA00192
:1013F000A79F500DB69F500D1124D8014D935C93BB
:101400000196CBCF6801CE0EDF1ECC0CDD1CA601F1
:10141000435F594F6A018091490690914A06409175
:101420004B0650914C06840F951F40914D065091EC
:101430004E06840F951F40914F0650915006840F21
:10144000951F4091510650915206840F951F40916F
:10145000530650915406840F951F62E070E00E947D
:10146000130FD6018D939C93319690E080E0E3308A
:10147000F1055CF58630910529F2AC01440F551F4A
:10148000BA01675B794F4B01B701680F791F660F8F
:10149000771F60507F4F480F591F4E0F5F1F440F3B
:1014A000551F4557594FDB01CD90DC90DA016D9106
:1014B0007C91C69EA001C79E500DD69E500D112452
:1014C000D4014D935C930196D2CF2F5F3F4F2A30CA
:1014D000310509F067CF1DEF612E16E0712EEDEAA0
:1014E000F5E0FC87EB878F01F30127E0ED35F2078C
:1014F00021F1BCE0EB2EB1E0FB2E30E020E0D70183
:101500008D919D917D016801C20ED31EDF01A20F56
:10151000B31F4D915C91840F951F62E070E00E94B3
:10152000130FD6018D939C932E5F3F4F2C303105C6
:1015300031F73C96045F1F4FD8CFEDE4F5E0FA8712
:10154000E9878F012DEF36E0F7E02D353F0721F1D8
:10155000A8E1EA2EA1E0FA2EF0E0E0E0D7018D91BB
:101560009D917D016801CE0EDF1ED901AE0FBF1F18
:101570004D915C91840F951F62E070E00E94130F03
:10158000D6018D939C933296EC30F10539F7245FA8
:101590003F4F045F1F4FD8CFEDEEF4E0F887EF83A5
:1015A0007F010DEF16E02017310729F1F4E2CF2E6D
:1015B000F1E0DF2EF0E0E0E0D6018D919D916D012C
:1015C00047018E0E9F1ED801AE0FBF1F4D915C913B
:1015D000840F951F62E070E00E94130FD4018D9379
:1015E0009C933296EC30F10539F7045F1F4FBCE055
:1015F000EB0EF11CD8CFEDE8F4E0FE87ED877F011C
:101600000DEF16E02017310729F1E0E3CE2EE1E0DF
:10161000DE2EF0E0E0E0D6018D919D916D01470155
:101620008E0E9F1ED801AE0FBF1F4D915C91840F8F
:10163000951F62E070E00E94130FD4018D939C937C
:101640003296EC30F10539F7045F1F4FBCE0EB0E2A
:10165000F11CD8CFEDE2F4E0FC83EB837F010DEFCA
:1016600016E02017310729F17CE3C72E71E0D72E51
:10167000F0E0E0E0D6018D919D916D0147018E0E65
:101680009F1ED801AE0FBF1F4D915C91840F951F17
:1016900062E070E00E94130FD4018D939C93329608
:1016A000EC30F10539F7045F1F4FBCE0EB0EF11C85
:1016B000D8CFEDECF3E0FE83ED837F010DEF16E074
:1016C0002017310729F168E4C62E61E0D62EF0E03C
:1016D000E0E0D6018D919D916D0147018E0E9F1E18
:1016E000D801AE0FBF1F4D915C91840F951F62E032
:1016F00070E00E94130FD4018D939C933296EC30CE
:10170000F10539F7045F1F4FBCE0EB0EF11CD8CF99
:10171000EDE6F3E0FA83E9837F010DEF16E0F7E0F1
:101720000D351F0729F154E5C52E51E0D52EF0E007
:10173000E0E0D6018D919D916D0147018E0E9F1EB7
:10174000D801AE0FBF1F4D915C91840F951F62E0D1
:1017500070E00E94130FD4018D939C933296EC306D
:10176000F10539F7045F1F4FBCE0EB0EF11CD7CF3A
:101770004DE0842E43E0942E74010DEF16E0201707
:10178000310741F190E6C92E91E0D92EF0E0E0E07A
:10179000D6018D919D916D01A7014E0F5F1F5A8F4C
:1017A000498FD801AE0FBF1F4D915C91840F951FDB
:1017B00062E070E00E94130FA98DBA8D8D939C9307
:1017C0003296EC30F10521F7045F1F4FBCE0EB0EC1
:1017D000F11CD5CFEDEAF2E08F012DE5621627E08E
:1017E000720631F18CE6E82E81E0F82E30E020E040
:1017F000D7018D919D917D016801C20ED31ED30149
:10180000A20FB31F4D915C91840F951F62E070E0B1
:101810000E94130FD6018D939C932E5F3F4F2C3067
:10182000310531F7BCE06B0E711C045F1F4FD5CF43
:1018300090E080E030E020E0AC01440F551FBA0199
:101840006F557D4F7B01BA01680F791F620F731FBF
:10185000660F771F6557794F4759584FDB010D9138
:101860001C91DA016D917C91069FA001079F500D9C
:10187000169F500D1124D7014D935C93019635C0EE
:1018800086309105C9F68901000F111F05561D4FBD
:101890008091A1029091A2024091A3025091A402D2
:1018A000840F951F4091A5025091A602840F951FA9
:1018B0004091A7025091A802840F951F4091A90260
:1018C0005091AA02840F951F4091AB025091AC0237
:1018D000840F951F62E070E00E94130FD8018D9372
:1018E0009C932F5F3F4F90E080E02330310544F21E
:1018F00080919B0290919C022091130630911406D6
:101900008217930741F540919D0250919E022091CC
:1019100015063091160642175307E9F440919F02CD
:101920005091A002209117063091180642175307D4
:1019300091F4EFE8F2E029EB35E04B855C85241764
:10194000350709F46FC1DA018D919D91BC87AB8792
:1019500081939193F0CF2091190630911A06821746
:10196000930741F540919D0250919E0220911B06E4
:1019700030911C0642175307E9F440919F025091A1
:10198000A00220911D0630911E064217530791F4C4
:10199000EFE8F2E029E535E049855A852417350757
:1019A00009F440C1DA018D919D91BA87A98781938D
:1019B0009193F0CF20911F06309120068217930754
:1019C00041F540919D0250919E0220912106309157
:1019D000220642175307E9F440919F025091A0025A
:1019E00020912306309124064217530791F4EFE823
:1019F000F2E029EF34E04F8158852417350709F4C8
:101A000011C1DA018D919D91B887AF838193919334
:101A1000F0CF20912506309126068217930739F5DD
:101A200040919D0250919E022091270630912806F8
:101A300042175307E1F440919F025091A002209178
:101A4000290630912A064217530789F4EFE8F2E09D
:101A50002D853E8544E02939340709F4E3C0D901D6
:101A60008D919D91BE87AD8781939193F1CF209108
:101A70002B0630912C068217930741F540919D0269
:101A800050919E0220912D0630912E064217530749
:101A9000E9F440919F025091A00220912F063091CD
:101AA00030064217530791F4EFE8F2E029E334E0FF
:101AB0004B815C812417350709F4B4C0DA018D919C
:101AC0009D91BC83AB8381939193F0CF209131069C
:101AD000309132068217930739F540919D0250915B
:101AE0009E02209133063091340642175307E1F4E9
:101AF00040919F025091A002209135063091360608
:101B00004217530789F4EFE8F2E02D813E8143E06C
:101B1000293D340709F486C0D9018D919D91BE837A
:101B2000AD8381939193F1CF2091370630913806A0
:101B30008217930709F076C020919D0230919E0292
:101B40008091390690913A062817390709F06AC042
:101B500020919F023091A00280913B0690913C061B
:101B60002817390709F05EC08091EB069091EC06CA
:101B70002F85388928173907D1F08091F306909185
:101B8000F4064D895E894817590789F0EFE8F2E0BD
:101B900029813A8143E02937340709F443C0D90148
:101BA0008D919D91BA83A98381939193F1CF809177
:101BB000EF069091F00629893A8928173907B9F07C
:101BC0008091F5069091F6064F89588D4817590770
:101BD00071F0EFE8F2E059E1851653E0950611F156
:101BE000D4018D919D914D0181939193F4CF80917A
:101BF000ED069091EE0628163906A1F08091F106C7
:101C00009091F2062B893C892817390759F0AFE8E3
:101C1000B2E032E0E93BF30729F0819191918D9395
:101C20009D93F7CFE9E6F7E00FE812E023E832E012
:101C300049E757E04E175F0709F45AC08191919127
:101C4000D8014D915D918D01840F951F62E070E088
:101C50000E94130FD9018D939D939D01E9CF86308A
:101C6000910509F049C02F5F3F4F90E080E023309D
:101C70003105ACF390936407809363073093660754
:101C80002093650750926807409267070E94E70318
:101C90008CEF91E00E94730460E080E00E94EF030B
:101CA00010928202109281028091810290918202B0
:101CB000863091050CF043C0FC01EE0FFF1FE5518B
:101CC000F94F008111811093800200937F0260E040
:101CD0008D5F0E94EF03C8010E9480048091810201
:101CE0009091820201969093820280938102DCCFD0
:101CF00030E020E090E080E0AC01440F551F8A0105
:101D0000075B194FDA01A80FB91FA20FB31FAA0F63
:101D1000BB1FA557B94F4D575D4F0D90BC91A02DDE
:101D2000FA0160817181A69FA001A79F500DB69F07
:101D3000500D1124D8014D935C93019698CF61E02A
:101D400080E00E94EF038FEF91E00E9473041092F5
:101D500082021092810280918102909182028330EE
:101D60009105E4F4FC01EE0FFF1FE556FD4F0081E5
:101D700011811093800200937F0261E08B5F0E94CB
:101D8000EF03C8010E948004809181029091820239
:101D900001969093820280938102DDCF60ED77E01F
:101DA00080E090E00E9488010E94E70385E092E0D5
:101DB0000E94730460E080E00E94EF0310928202B0
:101DC0001092810280918102909182028630910569
:101DD000E4F4FC01EE0FFF1FED57FD4F0081118170
:101DE0001093800200937F0260E08B5F0E94EF03FC
:101DF000C8010E9480048091810290918202019624
:101E00009093820280938102DDCF60ED77E080E0E5
:101E100090E00E94880180E090E0892B09F41EC8C0
:101E20000E9400001BC897FB072E16F4009407D0F1
:101E300077FD09D00E94490F07FC05D03EF490952C
:101E400081959F4F0895709561957F4F0895A1E208
:101E50001A2EAA1BBB1BFD010DC0AA1FBB1FEE1F24
:101E6000FF1FA217B307E407F50720F0A21BB30B6F
:101E7000E40BF50B661F771F881F991F1A9469F7EB
:101E800060957095809590959B01AC01BD01CF0147
:101E90000895AA1BBB1B51E107C0AA1FBB1FA617B1
:101EA000B70710F0A61BB70B881F991F5A95A9F703
:101EB00080959095BC01CD010895EE0FFF1F059010
:0A1EC000F491E02D0994F894FFCF8F
:101ECA000000000000000000000000000000000008
:101EDA0000000000000001000000000000000000F7
:101EEA0001000000000000000000010000000000E6
:101EFA0000000000010000000000000000000100D6
:101F0A0000000000000000000100000000000000C6
:101F1A0000000000010000000000000001000000B5
:101F2A0000000000010000000000010000000100A4
:101F3A000000010000000000010000000100000094
:101F4A000100010001000100000001000000000082
:101F5A000100000001000000010000000000010073
:101F6A000100000000000100010001000000000063
:101F7A000000000000000000010000000100000055
:101F8A000000010001000100000000000100000043
:101F9A000100010001000000010001000100000031
:101FAA0000005F033203220408032B03180309030A
:101FBA00000000000B04B6002204BA01753D00536C
:0C1FCA00696E643D00556465633D0000D5
:00000001FF
